{
  "contractName": "TodoList",
  "abi": [
    {
      "inputs": [],
      "stateMutability": "nonpayable",
      "type": "constructor"
    },
    {
      "anonymous": false,
      "inputs": [
        {
          "indexed": false,
          "internalType": "uint256",
          "name": "id",
          "type": "uint256"
        },
        {
          "indexed": false,
          "internalType": "bool",
          "name": "completed",
          "type": "bool"
        }
      ],
      "name": "TaskCompleted",
      "type": "event"
    },
    {
      "anonymous": false,
      "inputs": [
        {
          "indexed": false,
          "internalType": "uint256",
          "name": "id",
          "type": "uint256"
        },
        {
          "indexed": false,
          "internalType": "string",
          "name": "content",
          "type": "string"
        },
        {
          "indexed": false,
          "internalType": "bool",
          "name": "completed",
          "type": "bool"
        }
      ],
      "name": "TaskCreated",
      "type": "event"
    },
    {
      "inputs": [],
      "name": "taskCount",
      "outputs": [
        {
          "internalType": "uint256",
          "name": "",
          "type": "uint256"
        }
      ],
      "stateMutability": "view",
      "type": "function",
      "constant": true
    },
    {
      "inputs": [
        {
          "internalType": "uint256",
          "name": "",
          "type": "uint256"
        }
      ],
      "name": "tasks",
      "outputs": [
        {
          "internalType": "uint256",
          "name": "id",
          "type": "uint256"
        },
        {
          "internalType": "string",
          "name": "content",
          "type": "string"
        },
        {
          "internalType": "bool",
          "name": "completed",
          "type": "bool"
        }
      ],
      "stateMutability": "view",
      "type": "function",
      "constant": true
    },
    {
      "inputs": [
        {
          "internalType": "string",
          "name": "_content",
          "type": "string"
        }
      ],
      "name": "createTask",
      "outputs": [],
      "stateMutability": "nonpayable",
      "type": "function"
    },
    {
      "inputs": [
        {
          "internalType": "uint256",
          "name": "_id",
          "type": "uint256"
        }
      ],
      "name": "toggleCompleted",
      "outputs": [],
      "stateMutability": "nonpayable",
      "type": "function"
    },
    {
      "inputs": [
        {
          "internalType": "uint256",
          "name": "_id",
          "type": "uint256"
        }
      ],
      "name": "deleteTask",
      "outputs": [],
      "stateMutability": "nonpayable",
      "type": "function"
    }
  ],
  "bytecode": "0x6080604052600080553480156200001557600080fd5b506200005c6040518060400160405280600d81526020017f4c6561726e205765622d332e30000000000000000000000000000000000000008152506200006260201b60201c565b620003f0565b600080815480929190620000769062000227565b919050555060405180606001604052806000548152602001828152602001600015158152506001600080548152602001908152602001600020600082015181600001556020820151816001019080519060200190620000d79291906200013e565b5060408201518160020160006101000a81548160ff0219169083151502179055509050507f05d0fb833127fc08168556d0e7ca9554fc3f6bc843b3b7d2bf1c35aea6bab660600054826000604051620001339392919062000347565b60405180910390a150565b8280546200014c90620003ba565b90600052602060002090601f016020900481019282620001705760008555620001bc565b82601f106200018b57805160ff1916838001178555620001bc565b82800160010185558215620001bc579182015b82811115620001bb5782518255916020019190600101906200019e565b5b509050620001cb9190620001cf565b5090565b5b80821115620001ea576000816000905550600101620001d0565b5090565b7f4e487b7100000000000000000000000000000000000000000000000000000000600052601160045260246000fd5b6000819050919050565b600062000234826200021d565b91507fffffffffffffffffffffffffffffffffffffffffffffffffffffffffffffffff8214156200026a5762000269620001ee565b5b600182019050919050565b62000280816200021d565b82525050565b600081519050919050565b600082825260208201905092915050565b60005b83811015620002c2578082015181840152602081019050620002a5565b83811115620002d2576000848401525b50505050565b6000601f19601f8301169050919050565b6000620002f68262000286565b62000302818562000291565b935062000314818560208601620002a2565b6200031f81620002d8565b840191505092915050565b60008115159050919050565b62000341816200032a565b82525050565b60006060820190506200035e600083018662000275565b8181036020830152620003728185620002e9565b905062000383604083018462000336565b949350505050565b7f4e487b7100000000000000000000000000000000000000000000000000000000600052602260045260246000fd5b60006002820490506001821680620003d357607f821691505b60208210811415620003ea57620003e96200038b565b5b50919050565b61099980620004006000396000f3fe608060405234801561001057600080fd5b50600436106100575760003560e01c8063111002aa1461005c578063455f502414610078578063560f3192146100945780638d977672146100b0578063b6cb58a5146100e2575b600080fd5b610076600480360381019061007191906106aa565b610100565b005b610092600480360381019061008d9190610729565b6101d6565b005b6100ae60048036038101906100a99190610729565b610363565b005b6100ca60048036038101906100c59190610729565b6103a8565b6040516100d993929190610808565b60405180910390f35b6100ea610467565b6040516100f79190610846565b60405180910390f35b60008081548092919061011290610890565b91905055506040518060600160405280600054815260200182815260200160001515815250600160008054815260200190815260200160002060008201518160000155602082015181600101908051906020019061017192919061046d565b5060408201518160020160006101000a81548160ff0219169083151502179055509050507f05d0fb833127fc08168556d0e7ca9554fc3f6bc843b3b7d2bf1c35aea6bab6606000548260006040516101cb93929190610808565b60405180910390a150565b6000600160008381526020019081526020016000206040518060600160405290816000820154815260200160018201805461021090610908565b80601f016020809104026020016040519081016040528092919081815260200182805461023c90610908565b80156102895780601f1061025e57610100808354040283529160200191610289565b820191906000526020600020905b81548152906001019060200180831161026c57829003601f168201915b505050505081526020016002820160009054906101000a900460ff161515151581525050905080604001511581604001901515908115158152505080600160008481526020019081526020016000206000820151816000015560208201518160010190805190602001906102fe92919061046d565b5060408201518160020160006101000a81548160ff0219169083151502179055509050507fe21fa966ca5cd02748c0752352d18c48165e61cb55b4c29cccf924b5a95fcff182826040015160405161035792919061093a565b60405180910390a15050565b6001600082815260200190815260200160002060008082016000905560018201600061038f91906104f3565b6002820160006101000a81549060ff0219169055505050565b60016020528060005260406000206000915090508060000154908060010180546103d190610908565b80601f01602080910402602001604051908101604052809291908181526020018280546103fd90610908565b801561044a5780601f1061041f5761010080835404028352916020019161044a565b820191906000526020600020905b81548152906001019060200180831161042d57829003601f168201915b5050505050908060020160009054906101000a900460ff16905083565b60005481565b82805461047990610908565b90600052602060002090601f01602090048101928261049b57600085556104e2565b82601f106104b457805160ff19168380011785556104e2565b828001600101855582156104e2579182015b828111156104e15782518255916020019190600101906104c6565b5b5090506104ef9190610533565b5090565b5080546104ff90610908565b6000825580601f106105115750610530565b601f01602090049060005260206000209081019061052f9190610533565b5b50565b5b8082111561054c576000816000905550600101610534565b5090565b6000604051905090565b600080fd5b600080fd5b600080fd5b600080fd5b6000601f19601f8301169050919050565b7f4e487b7100000000000000000000000000000000000000000000000000000000600052604160045260246000fd5b6105b78261056e565b810181811067ffffffffffffffff821117156105d6576105d561057f565b5b80604052505050565b60006105e9610550565b90506105f582826105ae565b919050565b600067ffffffffffffffff8211156106155761061461057f565b5b61061e8261056e565b9050602081019050919050565b82818337600083830152505050565b600061064d610648846105fa565b6105df565b90508281526020810184848401111561066957610668610569565b5b61067484828561062b565b509392505050565b600082601f83011261069157610690610564565b5b81356106a184826020860161063a565b91505092915050565b6000602082840312156106c0576106bf61055a565b5b600082013567ffffffffffffffff8111156106de576106dd61055f565b5b6106ea8482850161067c565b91505092915050565b6000819050919050565b610706816106f3565b811461071157600080fd5b50565b600081359050610723816106fd565b92915050565b60006020828403121561073f5761073e61055a565b5b600061074d84828501610714565b91505092915050565b61075f816106f3565b82525050565b600081519050919050565b600082825260208201905092915050565b60005b8381101561079f578082015181840152602081019050610784565b838111156107ae576000848401525b50505050565b60006107bf82610765565b6107c98185610770565b93506107d9818560208601610781565b6107e28161056e565b840191505092915050565b60008115159050919050565b610802816107ed565b82525050565b600060608201905061081d6000830186610756565b818103602083015261082f81856107b4565b905061083e60408301846107f9565b949350505050565b600060208201905061085b6000830184610756565b92915050565b7f4e487b7100000000000000000000000000000000000000000000000000000000600052601160045260246000fd5b600061089b826106f3565b91507fffffffffffffffffffffffffffffffffffffffffffffffffffffffffffffffff8214156108ce576108cd610861565b5b600182019050919050565b7f4e487b7100000000000000000000000000000000000000000000000000000000600052602260045260246000fd5b6000600282049050600182168061092057607f821691505b60208210811415610934576109336108d9565b5b50919050565b600060408201905061094f6000830185610756565b61095c60208301846107f9565b939250505056fea2646970667358221220b4d4184c31a75331a02b34a9c3aee99cf90a2c12621d182a61ddf720cd342a9a64736f6c634300080b0033",
  "immutableReferences": {},
  "source": "// SPDX-License-Identifier: MIT\npragma solidity ^0.8.0;\n\ncontract TodoList {\n    uint public taskCount = 0;\n  \n    struct Task {\n      uint id;\n      string content;\n      bool completed;\n    }\n  \n    mapping(uint => Task) public tasks;\n  \n    event TaskCreated(\n      uint id,\n      string content,\n      bool completed\n    );\n  \n    event TaskCompleted(\n      uint id,\n      bool completed\n    );\n  \n    constructor() {\n      createTask(\"Learn Web-3.0\");\n    }\n  \n    function createTask(string memory _content) public {\n      taskCount ++;\n      tasks[taskCount] = Task(taskCount, _content, false);\n      emit TaskCreated(taskCount, _content, false);\n    }\n  \n    function toggleCompleted(uint _id) public {\n      Task memory _task = tasks[_id];\n      _task.completed = !_task.completed;\n      tasks[_id] = _task;\n      emit TaskCompleted(_id, _task.completed);\n    }\n\n    function deleteTask(uint _id) public {\n      delete tasks[_id];\n    }\n  \n  }",
  "sourcePath": "/Users/vtech/Desktop/todo/contracts/contracts/TodoList.sol",
  "compiler": {
    "name": "solc",
    "version": "0.8.11+commit.d7f03943.Emscripten.clang"
  },
  "schemaVersion": "3.4.4",
  "updatedAt": "2022-02-15T12:25:57.794Z",
  "networkType": "ethereum",
  "devdoc": {
    "kind": "dev",
    "methods": {},
    "version": 1
  },
  "userdoc": {
    "kind": "user",
    "methods": {},
    "version": 1
  }
}